:020000040000FA
:06000000A4EF01F0120064
:020006000000F8
:08000800800E6F6E6E50E00BDC
:10001000E842E842E842E842E842040801E0F6D754
:10002000400E726E0E01810E436FB80E446F050EC6
:10003000456FFC0E7D6FFA6BFB6BF869E00EF96F94
:10004000FE6BFF6BFC69FD6F030E466F476BF40E92
:10005000796F7A697B697C69100E716F7269736957
:1000600074697569766977697869E26BE36B320E5A
:10007000E06FC00EE16FE66BE76B330EE46FC00E0E
:10008000E56F6F6A6E50E00BE842E842E842E842F2
:10009000E842000901E1F6D7606A0F01306B1200F7
:1000A000D9CFE6FFE1CFD9FF090EE126DF6A60AEC6
:1000B0001ED063CF00FE64CF01FE61CF02FE62CF8F
:1000C00003FE65CF04FE66CF05FE67CF06FE68CF50
:1000D00007FE69CF08FE6ACF09FE6BCF0AFE6CCF20
:1000E0000BFE6DCF0CFE609E010EDF6E41D00F0146
:1000F00030AF1ED033CF00FE34CF01FE31CF02FE31
:1001000032CF03FE35CF04FE36CF05FE37CF06FED5
:1001100038CF07FE39CF08FE3ACF09FE3BCF0AFEA3
:100120003CCF0BFE3DCF0CFE309F010EDF6E20D08A
:100130000E0180AF1DD083CE00FE84CE01FE81CEA5
:1001400002FE82CE03FE85CE04FE86CE05FE87CE5D
:1001500006FE88CE07FE89CE08FE8ACE09FE8BCE2B
:100160000AFE8CCE0BFE8DCE0CFE809F010EDF6E44
:10017000DF0405E1DF6A7792010E03D002D0000EA2
:1001800000D0026E090EE15C02E2E16AE552E16E26
:100190000250E552E7CFD9FF12000F01236B246B09
:1001A0006B0E216FC00E226F030E256FAA0E266FF5
:1001B000CC0E276F550E286F296B2A6B2B6B2C6B7F
:0601C0002D6B20871200E8
:0A01C60013D824D8000902E0CDECA4
:1001D00000F050EC00F0000901E08C2A48D8E66AF3
:1001E000050EE66E2FD8E552E552EED712008F0EBF
:1001F000D3147009D36E9B8C0E01176B186B196B9F
:100200000F015C6B5CCF5DFF8C6A956A936804EFAD
:1002100000F0D9CFE6FFE1CFD9FFE652DF6A81B027
:1002200008D00E01195102E1010EDF6E010E196FA7
:1002300002D00E01196BDF5000D0E552E552E7CF36
:10024000D9FF1200D9CFE6FFE1CFD9FFFD0EDBCFFA
:1002500002F0DB06FE0EDBCF03F001E2DB0602500C
:10026000031001E0F3D7E552E7CFD9FF12000E01EA
:10027000FF0E175D000E185904E2172B000E18230D
:0A02800003D0176B186B8C7E120080
:06028A00060EF66E000EE8
:10029000F76E000EF86E0E010900F550126F09009E
:1002A000F550136F03E1126701D03DD00900F550FE
:1002B0000D6F0900F5500E6F0900F5500F6F090022
:1002C0000900F550E96E0900F550EA6E09000900D1
:1002D0000900F550106F0900F550116F0900090071
:1002E000F6CF14FEF7CF15FEF8CF16FE0DCEF6FFB3
:1002F0000ECEF7FF0FCEF8FF0E01105302E111539F
:1003000007E00900F550EE6E1007F8E21107F9D783
:1003100014CEF6FF15CEF7FF16CEF8FF0E0112072A
:08032000000E135BBFD71200B1
:08032800410EF36E00EE00F03F
:100330000E0E01D81200EA6002D0EE6AFCD7F3502C
:08034000E9601200EE6AFCD72F
:080348001DEE00F02DEE00F0A7
:10035000F86A019C45EC01F0B2EC01F0E3EC00F02E
:04036000FBD71200B5
:02036400120085
:020000040030CA
:010000001DE2
:00000001FF
