:020000040000FA
:0600000098EF03F012006E
:020006001200E6
:060008003FEF03F01200BF
:02000E0031328D
:080010003334350000FF01014B
:060018004AEF03F01200A4
:02001E000100DF
:0C0020000E000000170E00000A00000097
:04002C000E011D2B79
:100030001D51060801E21D6B1D51EA6A170FE96E9A
:100040000E0EEA22EF50E66E2CD8E5520E011D513D
:10005000050A1AE0010A15E0070A10E0010A0BE0A0
:10006000030A06E0010A01E011D08A8A899A0ED0BB
:10007000898A8A900BD08A808A9208D08A828A984C
:1000800005D08A888A9A02D08A8A8A9A1F511D5D71
:1000900004E0030E1D25205D02E18B9001D08B90C2
:1000A0001200D9CFE6FFE1CFD9FFFE0EDB500908E1
:1000B00008E3000EF36EFE0EDBCFF4FFF350F45CAA
:1000C00005E20A0EF36EFE0EF3CFDBFFFE0EDB50F1
:1000D0000F0B896EE552E7CFD9FF1200D9CFE6FFAB
:1000E000E1CFD9FF030EE126DF6A010EDB6A020EC3
:1000F000DB6A010EDBCF00F0020EDBCF01F0D890FF
:10010000015004E6060E005C000E015849E2010EA3
:10011000DBCF00F0020EDBCF01F0FD0EDB50002440
:10012000E96EFE0EDB500120EA6EEF50090813E382
:10013000010EDBCF03F0020EDBCF04F0FD0EDB502F
:100140000324E96EFE0EDB500420EA6EEFCF02F0CE
:10015000000E025C02E2010EDF6E010EDBCF00F04A
:10016000020EDBCF01F0FD0EDB500024E96EFE0E27
:10017000DB500120EA6EEF50E66E010EDBCFE9FFA7
:10018000020EDBCFEAFF170EE9260E0EEA22E55239
:10019000E750EF6E010EDB2A020E01E3DB2AA9D73E
:1001A000DF50006E030EE15C03E200D0E16AE5522D
:1001B000E16E0050E552E7CFD9FF1200D9CFE6FF3C
:1001C000E1CFD9FF030EE126DF6A010EDB6A020EE2
:1001D000DB6A010EDBCF00F0020EDBCF01F0D8901E
:1001E000015004E6030E005C000E015849E2010EC6
:1001F000DBCF00F0020EDBCF01F0FD0EDB50002460
:10020000E96EFE0EDB500120EA6EEF50090813E3A1
:10021000010EDBCF03F0020EDBCF04F0FD0EDB504E
:100220000324E96EFE0EDB500420EA6EEFCF02F0ED
:10023000000E025C02E2010EDF6E010EDBCF00F069
:10024000020EDBCF01F0FD0EDB500024E96EFE0E46
:10025000DB500120EA6EEF50E66E010EDBCFE9FFC6
:10026000020EDBCFEAFF170EE9260E0EEA22E55258
:10027000E750EF6E010EDB2A020E01E3DB2AA9D75D
:10028000DF50006E030EE15C03E200D0E16AE5524C
:10029000E16E0050E552E7CFD9FF1200D9CFE6FF5B
:1002A000E1CFD9FF030EE126DF6AF36E010EF3CF33
:1002B000DBFF020EDB6A010EDBCF00F0020EDBCFAC
:1002C00001F0D890015004E6060E005C000E0158C3
:1002D00049E2010EDBCF00F0020EDBCF01F0FD0E94
:1002E000DB500024E96EFE0EDB500120EA6EEF5079
:1002F000090813E3010EDBCF03F0020EDBCF04F09D
:10030000FD0EDB500324E96EFE0EDB500420EA6E86
:10031000EFCF02F0000E025C02E2010EDF6E010E72
:10032000DBCF00F0020EDBCF01F0FD0EDB5000242E
:10033000E96EFE0EDB500120EA6EEF50E66E010E14
:10034000DBCFE9FF020EDBCFEAFF170EE9260E0E28
:10035000EA22E552E750EF6E010EDB2A020E01E3BE
:10036000DB2AA9D7DF50006E030EE15C03E200D068
:10037000E16AE552E16E0050E552E7CFD9FF120085
:10038000800E6F6E6E50E00BE842E842E842E842B1
:10039000E842040801E0F6D7400E726E0E01810EAD
:1003A000436FB80E446F050E456FFC0E7D6FFA6B00
:1003B000FB6BF869E00EF96FFE6BFF6BFC69FD6F7C
:1003C000030E466F476BF40E796F7A697B697C691F
:1003D000100E716F726973697469756976697769EE
:1003E0007869E26BE36B320EE06FC00EE16FE66B93
:1003F000E76B330EE46FC00EE56F6F6A6E50E00B73
:10040000E842E842E842E842E842000901E1F6D762
:10041000606A0F01306B1200D9CFE6FFE1CFD9FF40
:10042000090EE126DF6A60AE1ED063CF00FE64CF06
:1004300001FE61CF02FE62CF03FE65CF04FE66CFF0
:1004400005FE67CF06FE68CF07FE69CF08FE6ACFBC
:1004500009FE6BCF0AFE6CCF0BFE6DCF0CFE609ECB
:10046000010EDF6E41D00F0130AF1ED033CF00FE42
:1004700034CF01FE31CF02FE32CF03FE35CF04FE72
:1004800036CF05FE37CF06FE38CF07FE39CF08FE40
:100490003ACF09FE3BCF0AFE3CCF0BFE3DCF0CFE10
:1004A000309F010EDF6E20D00E0180AF1DD083CEB5
:1004B00000FE84CE01FE81CE02FE82CE03FE85CEFA
:1004C00004FE86CE05FE87CE06FE88CE07FE89CEC8
:1004D00008FE8ACE09FE8BCE0AFE8CCE0BFE8DCE98
:1004E0000CFE809F010EDF6EDF0405E1DF6A77926C
:1004F000010E03D002D0000E00D0006E090EE15CA8
:1005000002E2E16AE552E16E0050E552E7CFD9FF21
:1005100012000F01236B246B6B0E216FC00E226F34
:10052000030E256FAA0E266FCC0E276F550E286F6F
:0E053000296B2A6B2B6B2C6B2D6B2087120016
:02053E0080EC4F
:1005400003F012D8000902E089EC02F00CEC02F092
:10055000000901E08B8436D8E66A050EE66E1DD8E8
:10056000E552E552EED71200D9CFE6FFE1CFD9FF31
:10057000E652DF6A81B008D00E01235102E1010E7C
:10058000DF6E010E236F02D00E01236BDF5000D00F
:10059000E552E552E7CFD9FF1200D9CFE6FFE1CF10
:1005A000D9FFFD0EDBCF00F0DB06FE0EDBCF01F046
:1005B00001E2DB060050011001E0F3D7E552E7CF7E
:1005C000D9FF12000E01FF0E215D000E225904E238
:1005D000212B000E222303D0216B226B8B7412007F
:1005E0001E0EF66E000EF76E000EF86E0E0109007C
:1005F000F550126F0900F550136F03E1126701D037
:100600003DD00900F5500D6F0900F5500E6F09003F
:10061000F5500F6F09000900F550E96E0900F5501B
:10062000EA6E090009000900F550106F0900F55045
:10063000116F09000900F6CF14FEF7CF15FEF8CFB1
:1006400016FE0DCEF6FF0ECEF7FF0FCEF8FF0E0111
:10065000105302E1115307E00900F550EE6E100748
:10066000F8E21107F9D714CEF6FF15CEF7FF16CE34
:0E067000F8FF0E011207000E135BBFD7120039
:02067E00DACFD1
:10068000E4FFE2CFDAFFE652FC0E7716E552E5CF43
:10069000DAFF1100DACFE4FFE2CFDAFFE6527B0E99
:1006A0009E16E552E5CFDAFF1100640EF26E440E9D
:1006B000F16EF06A010E9D6EA06AA36AB66A030E1F
:1006C000766E9F6AA26AA56AB86A786ED08E00D0EC
:1006D00012004F0ECD6EAA6A1200926A896A0F014B
:1006E0005D6B936A8A6A5D6B5C6B916A946A8B6AD4
:1006F00000D01200F80ED36E600E9B6E00D0120078
:10070000D4DFF8DFE6DFE9DFC0EC01F000D0120053
:10071000410EF36E00EE00F00E0E01D81200EA60FA
:1007200002D0EE6AFCD7F350E9601200EE6AFCD703
:100730001DEE00F02DEE00F0F86A069CF0EC02F0E1
:0C07400003EC00F09FEC02F0FBD712006D
:020000040030CA
:010000001DE2
:00000001FF
