:020000040000FA
:06000000BDEF05F0120047
:020006001200E6
:06000800C5EF03F0120039
:02000E0000FFF1
:0100100000EF
:06001800D0EF03F012001E
:02001E000100DF
:0C0020000E000000200E00000300000095
:04002C000E01222B74
:10003000226B202B2051050801E2206B2051EA6A37
:10004000170FE96E0E0EEA22EF50E66E42D8E55227
:10005000898E8A808A828A888A8A898C0E012051B8
:10006000050A2EE0010A25E0070A1CE0010A13E058
:10007000030A0AE0010A01E029D0899E8A808A8267
:100080008A888A8A898C22D0898E8A908A828A88F4
:100090008A8A898C1BD0898E8A808A928A888A8AE9
:1000A000898C14D0898E8A808A828A988A8A898CDF
:1000B0000DD0898E8A808A828A888A9A898C06D015
:1000C000898E8A808A828A888A8A899C800ECF6EED
:1000D0001200D9CFE6FFE1CFD9FFFE0EDB500908B1
:1000E00008E3000EF36EFE0EDBCFF4FFF350F45C7A
:1000F00005E20A0EF36EFE0EF3CFDBFFFE0EDB50C1
:100100000F0B896EE552E7CFD9FF1200D9CFE6FF7A
:10011000E1CFD9FF030EE126DF6A010EDB6A020E92
:10012000DB6A010EDBCF14F0020EDBCF15F0D890A6
:10013000155004E6060E145C000E155849E2010E37
:10014000DBCF14F0020EDBCF15F0FD0EDB501424D4
:10015000E96EFE0EDB501520EA6EEF50090813E33E
:10016000010EDBCF17F0020EDBCF18F0FD0EDB50D7
:100170001724E96EFE0EDB501820EA6EEFCF16F062
:10018000000E165C02E2010EDF6E010EDBCF14F0F2
:10019000020EDBCF15F0FD0EDB501424E96EFE0ECF
:1001A000DB501520EA6EEF50E66E010EDBCFE9FF63
:1001B000020EDBCFEAFF170EE9260E0EEA22E55209
:1001C000E750EF6E010EDB2A020E01E3DB2AA9D70E
:1001D000DF50146E030EE15C03E200D0E16AE552E9
:1001E000E16E1450E552E7CFD9FF1200D9CFE6FFF8
:1001F000E1CFD9FF030EE126DF6A010EDB6A020EB2
:10020000DB6A010EDBCF14F0020EDBCF15F0D890C5
:10021000155004E6030E145C000E155849E2010E59
:10022000DBCF14F0020EDBCF15F0FD0EDB501424F3
:10023000E96EFE0EDB501520EA6EEF50090813E35D
:10024000010EDBCF17F0020EDBCF18F0FD0EDB50F6
:100250001724E96EFE0EDB501820EA6EEFCF16F081
:10026000000E165C02E2010EDF6E010EDBCF14F011
:10027000020EDBCF15F0FD0EDB501424E96EFE0EEE
:10028000DB501520EA6EEF50E66E010EDBCFE9FF82
:10029000020EDBCFEAFF170EE9260E0EEA22E55228
:1002A000E750EF6E010EDB2A020E01E3DB2AA9D72D
:1002B000DF50146E030EE15C03E200D0E16AE55208
:1002C000E16E1450E552E7CFD9FF1200D9CFE6FF17
:1002D000E1CFD9FF030EE126DF6AF36E010EF3CF03
:1002E000DBFF020EDB6A010EDBCF14F0020EDBCF68
:1002F00015F0D890155004E6060E145C000E155843
:1003000049E2010EDBCF14F0020EDBCF15F0FD0E3B
:10031000DB501424E96EFE0EDB501520EA6EEF5020
:10032000090813E3010EDBCF17F0020EDBCF18F044
:10033000FD0EDB501724E96EFE0EDB501820EA6E2E
:10034000EFCF16F0000E165C02E2010EDF6E010E1A
:10035000DBCF14F0020EDBCF15F0FD0EDB501424C2
:10036000E96EFE0EDB501520EA6EEF50E66E010ED0
:10037000DBCFE9FF020EDBCFEAFF170EE9260E0EF8
:10038000EA22E552E750EF6E010EDB2A020E01E38E
:10039000DB2AA9D7DF50146E030EE15C03E200D024
:1003A000E16AE552E16E1450E552E7CFD9FF120041
:1003B000D9CFE6FFE1CFD9FF0A0EE12633EC03F0F7
:1003C000E00E0E010215000EF3500E010315DE6E55
:1003D000DD6AD9CFE9FFDACFEAFF030EEE1802E1BA
:1003E000040EED1870E1D950060FE96EDACFEAFF7E
:1003F000110EEE6E0E0EED6E060EDBCFE9FF070E50
:10040000DBCFEAFFEECF14F0EECF15F0EECF16F013
:10041000EFCF17F014C005F015C006F016C007F0B6
:1004200017C008F08EEC04F0040E06C0DBFF050ECA
:1004300007C0DBFF640E146E156A040EDBCF06F0F6
:10044000050EDBCF07F014C00BF015C00CF097ECD5
:1004500005F006C017FE040EDBCF14F0050EDBCF4F
:1004600015F0640E0B6E0C6A14C006F015C007F090
:1004700097EC05F002C014F003C015F00A0E0B6EE5
:100480000C6A14C006F015C007F097EC05F006C022
:1004900014F007C015F014C018FE040EDBCF14F0E2
:1004A000050EDBCF15F00A0E0B6E0C6A14C006F0B9
:1004B00015C007F097EC05F002C014F003C015F06A
:1004C00014C019FE88D0D9CFE9FFDACFEAFF020EB7
:1004D000EE1802E1040EED1801E07DD0D950080FAE
:1004E000E96EDACFEAFF110EEE6E0E0EED6E080E1B
:1004F000DBCFE9FF090EDBCFEAFFEECF14F0EECF42
:1005000015F0EECF16F0EFCF17F014C005F015C0C0
:1005100006F016C007F017C008F08EEC04F0040EC9
:1005200006C0DBFF050E07C0DBFF040EDBCF14F0B7
:10053000050EDBCF15F0000E145C000E155802E21C
:100540008B9201D08B82640E146E156A040EDBCF81
:1005500006F0050EDBCF07F014C00BF015C00CF051
:1005600097EC05F006C01AFE040EDBCF14F0050E62
:10057000DBCF15F0640E0B6E0C6A14C006F015C0CC
:1005800007F097EC05F002C014F003C015F00A0E56
:100590000B6E0C6A14C006F015C007F097EC05F05E
:1005A00006C014F007C015F014C01BFE040EDBCF0C
:1005B00014F0050EDBCF15F00A0E0B6E0C6A14C09A
:1005C00006F015C007F097EC05F002C014F003C068
:1005D00015F014C01CFE0A0EE15C03E200D0E16AD3
:0C05E000E552E16EE552E7CFD9FF1200B2
:0405EC00800E6F6EA0
:1005F0006E50E00BE842E842E842E842E842040874
:1006000001E0F6D7400E726E0E01830E436FB80EF6
:10061000446F050E456FFC0E7D6F466B476B100EE9
:10062000716F7269736974697569766977697869D8
:10063000E26BE36B320EE06FC00EE16FE66BE76BCF
:10064000330EE46FC00EE56F6F6A6E50E00BE84248
:10065000E842E842E842E842000901E1F6D7606A70
:100660000F01306B1200D9CFE6FFE1CFD9FF0B0E9F
:10067000E126DF6A60AE1ED063CF00FE64CF01FECC
:1006800061CF02FE62CF03FE65CF04FE66CF05FE9A
:1006900067CF06FE68CF07FE69CF08FE6ACF09FE66
:1006A0006BCF0AFE6CCF0BFE6DCF0CFE609E010E71
:1006B000DF6E41D00F0130AF1ED033CF00FE34CFFC
:1006C00001FE31CF02FE32CF03FE35CF04FE36CF1E
:1006D00005FE37CF06FE38CF07FE39CF08FE3ACFEA
:1006E00009FE3BCF0AFE3CCF0BFE3DCF0CFE309FF8
:1006F000010EDF6E20D00E0180AF1DD083CE00FE34
:1007000084CE01FE81CE02FE82CE03FE85CE04FEA3
:1007100086CE05FE87CE06FE88CE07FE89CE08FE71
:100720008ACE09FE8BCE0AFE8CCE0BFE8DCE0CFE41
:10073000809F010EDF6EDF0405E1DF6A7792010E14
:1007400003D002D0000E00D0146E0B0EE15C02E26A
:10075000E16AE552E16E1450E552E7CFD9FF12008D
:100760000F01236B246B6B0E216FC00E226F256B64
:10077000AA0E266FCC0E276F550E286F296B2A6B99
:0A0780002B6B2C6B2D6B20871200F1
:06078A00DACFE4FFE2CF2C
:10079000DAFFE652FC0E7616E552E5CFDAFF1100DD
:1007A000DACFE4FFE2CFDAFFE9CFE4FFEACFE4FFFC
:1007B000F6CFE4FFF7CFE4FFF5CFE4FFF3CFE4FF9C
:1007C000F4CFE4FFFACFE4FF00EE00F0140EE804EB
:1007D00003E3EECFE4FFFBD700EE14F0050EE804D0
:1007E00003E3EECFE4FFFBD7E65216EC00F09E9059
:1007F000E55200EE18F0050EE80403E3E5CFEDFF47
:10080000FBD700EE13F0140EE80403E3E5CFEDFF91
:10081000FBD7E5CFFAFFE5CFF4FFE5CFF3FFE5CF58
:10082000F5FFE5CFF7FFE5CFF6FFE5CFEAFFE5CF30
:10083000E9FFE5CFDAFF1100400EF26E440EF16ED3
:10084000F06A010E9D6EA06AA36AB66A030E766E08
:100850009F6AA26AA56AB86A786E0E017E699E9048
:10086000FC0E7616800ED06E0F0156915F6B5E6B9C
:1008700000D012004D0ECD6EAA6A1200926A896AEB
:100880000F015D6B080E936E8A6A5D6B5C6B916AFB
:10089000916A800E946E8B6A00D012008F0ED31472
:1008A0007009D36E9B8C00D01200D9CFE6FFE1CF48
:1008B000D9FF060EE126010EDF6EDE52020EDD6E5E
:1008C000030EF36E020EF3CFDBFF040EF36E030E86
:1008D000F3CFDBFF050EF36E040EF3CFDBFF060E46
:1008E000F36E050EF3CFDBFFA7DFD8DFC3DFC6DF74
:1008F000F6EC02F0D9CFE6FFDACFE6FF86EC00F0A7
:10090000E552E552F28E060EE15C03E200D0E16AA8
:0C091000E552E16EE552E7CFD9FF12007E
:04091C000F6ABDECB5
:1009200004F00FB698EF04F00FA20ED00FB405D06C
:100930007F0E076EFF0E066E1FD0800E076E066AD2
:100940001BD0076A066A18D00FB0FBD78F0E08605D
:10095000EDD77E0E0864F5D78E0E085C05E0D890C2
:1009600007320632082AF8D70FA406D0066C071EF5
:10097000E86A072207AEE5D712000736083602E319
:100980000F840F7E06E10F80086A076A066A056A0F
:100990001200082803E0D88007321200D8900732EE
:1009A00002E10F8212000F8612000C360D3602E3B0
:1009B0000F8C0F7E06E10F880D6A0C6A0B6A0A6ABB
:1009C00012000D2803E0D8800C321200D8900C32AF
:0609D000EAE10F8A1200AB
:0A09D600D9CFE6FFE1CFD9FF020EF2
:1009E000E12655EC04F0B0EC03F0DE6ADD6ADECF00
:1009F00014F0DDCF15F0D890155004E6640E145CA9
:100A0000000E15580BE2E66A050EE66E2BD8E5528D
:100A1000E552DF2A010E01E3DB2AE9D7E4D7020E13
:100A2000E15C02E2E16AE552E16EE552E7CFD9FF0F
:100A30001200D9CFE6FFE1CFD9FFE652DF6A81B0DD
:100A400008D00E011F5102E1010EDF6E010E1F6F73
:100A500002D00E011F6BDF5000D0E552E552E7CF08
:100A6000D9FF1200D9CFE6FFE1CFD9FFE552E7CF9A
:100A7000D9FF12000E01FF0E1D5D000E1E5904E28B
:100A80001D2B000E1E2303D01D6B1E6B8B741200DA
:100A90001E0EF66E000EF76E000EF86E0E010900C7
:100AA000F550126F0900F550136F03E1126701D082
:100AB0003DD00900F5500D6F0900F5500E6F09008B
:100AC000F5500F6F09000900F550E96E0900F55067
:100AD000EA6E090009000900F550106F0900F55091
:100AE000116F09000900F6CF14FEF7CF15FEF8CFFD
:100AF00016FE0DCEF6FF0ECEF7FF0FCEF8FF0E015D
:100B0000105302E1115307E00900F550EE6E100793
:100B1000F8E21107F9D714CEF6FF15CEF7FF16CE7F
:0E0B2000F8FF0E011207000E135BBFD7120084
:020B2E00036A58
:100B3000026A100EE76ED890063607360236033684
:100B40000B50025C0C50035805E30B50025E0C5036
:0A0B5000035A062AE72EF0D7120020
:060B5A00410EF36E00EEF7
:100B600000F00E0E01D81200EA6002D0EE6AFCD747
:0A0B7000F350E9601200EE6AFCD7B2
:060B7A001DEE00F02DEE5F
:100B800000F0F86A0F9C48EC05F003EC00F0EBEC89
:060B900004F0FBD7120087
:020000040030CA
:010000001DE2
:00000001FF
