:020000040000FA
:06000000FEEF06F0120005
:020006001200E6
:060008006AEF05F0120092
:02000E0000FFF1
:020010000000EE
:0600180073EF05F0120079
:02001E000100DF
:0C0020000E0000001D0E00000400000097
:04002C000E011F2B77
:100030001F6B1D2B1D51050801E21D6B1D51EA6A46
:10004000170FE96E0E0EEA22EF50E66E42D8E55227
:10005000898E8A808A828A888A8A898C0E011D51BB
:10006000050A2EE0010A25E0070A1CE0010A13E058
:10007000030A0AE0010A01E029D0899E8A808A8267
:100080008A888A8A898C22D0898E8A908A828A88F4
:100090008A8A898C1BD0898E8A808A928A888A8AE9
:1000A000898C14D0898E8A808A828A988A8A898CDF
:1000B0000DD0898E8A808A828A888A9A898C06D015
:1000C000898E8A808A828A888A8A899C800ECF6EED
:1000D0001200D9CFE6FFE1CFD9FFFE0EDB500908B1
:1000E00008E3000EF36EFE0EDBCFF4FFF350F45C7A
:1000F00005E20A0EF36EFE0EF3CFDBFFFE0EDB50C1
:100100000F0B896EE552E7CFD9FF1200D9CFE6FF7A
:10011000E1CFD9FF030EE126DF6A010EDB6A020E92
:10012000DB6A010EDBCF14F0020EDBCF15F0D890A6
:10013000155004E6060E145C000E155849E2010E37
:10014000DBCF14F0020EDBCF15F0FD0EDB501424D4
:10015000E96EFE0EDB501520EA6EEF50090813E33E
:10016000010EDBCF17F0020EDBCF18F0FD0EDB50D7
:100170001724E96EFE0EDB501820EA6EEFCF16F062
:10018000000E165C02E2010EDF6E010EDBCF14F0F2
:10019000020EDBCF15F0FD0EDB501424E96EFE0ECF
:1001A000DB501520EA6EEF50E66E010EDBCFE9FF63
:1001B000020EDBCFEAFF170EE9260E0EEA22E55209
:1001C000E750EF6E010EDB2A020E01E3DB2AA9D70E
:1001D000DF50146E030EE15C03E200D0E16AE552E9
:1001E000E16E1450E552E7CFD9FF1200D9CFE6FFF8
:1001F000E1CFD9FF030EE126DF6A010EDB6A020EB2
:10020000DB6A010EDBCF14F0020EDBCF15F0D890C5
:10021000155004E6030E145C000E155858E2010E4A
:10022000DBCF14F0020EDBCF15F0FD0EDB501424F3
:10023000E96EFE0EDB501520EA6EEF50090813E35D
:10024000010EDBCF17F0020EDBCF18F0FD0EDB50F6
:100250001724E96EFE0EDB501820EA6EEFCF16F081
:10026000000E165C11E2010EDBCF14F0020EDBCFA4
:1002700015F0FD0EDB501424E96EFE0EDB50152048
:10028000EA6EEF6A010EDF6E010EDBCF14F0020E94
:10029000DBCF15F0FD0EDB501424E96EFE0EDB50B3
:1002A0001520EA6EEF50E66E010EDBCFE9FF020E7D
:1002B000DBCFEAFF170EE9260E0EEA22E552E750E1
:1002C000EF6E010EDB2A020E01E3DB2A9AD7DF5024
:1002D000146E030EE15C03E200D0E16AE552E16EC8
:1002E0001450E552E7CFD9FF1200D9CFE6FFE1CF96
:1002F000D9FF030EE126DF6A010EDB6A020EDB6A1C
:10030000010EDBCF14F0020EDBCF15F0D8901550A4
:1003100004E6030E145C000E155860E2010EDBCFFC
:1003200014F0020EDBCF15F0FD0EDB501424E96E45
:10033000FE0EDB501520EA6EEF50090813E3010EA4
:10034000DBCF17F0020EDBCF18F0FD0EDB501724C9
:10035000E96EFE0EDB501820EA6EEFCF16F0000EAD
:10036000165C13E2030EE76E010EDBCFE9FF020E0F
:10037000DBCFEAFFE750E926000EEA22170EE92656
:100380000E0EEA22EF6A010EDF6E010EDBCF14F0D3
:10039000020EDBCF15F0FD0EDB501424E96EFE0ECD
:1003A000DB501520EA6EEF50E66E030EE76E010E8D
:1003B000DBCFE9FF020EDBCFEAFFE750E926000EB4
:1003C000EA22170EE9260E0EEA22E552E750EF6EFA
:1003D000010EDB2A020E01E3DB2A92D7DF50146EF6
:1003E000030EE15C03E200D0E16AE552E16E1450D5
:1003F000E552E7CFD9FF1200D9CFE6FFE1CFD9FF11
:10040000FE0EDB0404E1100E8B108B6E03D0EF0E9A
:100410008B148B6EE552E7CFD9FF1200D9CFE6FFE0
:10042000E1CFD9FF030EE126FD0EDBCF14F0FE0E67
:10043000DBCF15F00001800E151410E00868096884
:10044000FD0EDBCF0DF0FE0EDBCF0EF05CEC06F008
:10045000FD0E06C0DBFFFE0E07C0DBFFFD0EDBCF8F
:1004600014F0FE0EDBCF15F0640E0D6E0E6A14C094
:1004700008F015C009F036EC06F008C014F009C009
:1004800015F00A0E0D6E0E6A14C008F015C009F0C2
:1004900036EC06F004C014F005C015F01450DF6E01
:1004A000FD0EDBCF14F0FE0EDBCF15F00A0E0D6E45
:1004B0000E6A14C008F015C009F036EC06F008C04A
:1004C00014F009C015F00A0E0D6E0E6A14C008F083
:1004D00015C009F036EC06F004C014F005C015F0A4
:1004E000010E14C0DBFFFD0EDBCF14F0FE0EDBCFE0
:1004F00015F00A0E0D6E0E6A14C008F015C009F052
:1005000036EC06F004C014F005C015F0020E14C05D
:10051000DBFFD9CFE6FFDACFE6FF68DEE552E55232
:10052000030EE15C03E200D0E16AE552E16EE552C0
:10053000E7CFD9FF1200D9CFE6FFE1CFD9FF050EF3
:10054000E126FD0EDBCF08F0FE0EDBCF09F0030E37
:1005500008C0DBFF040E09C0DBFF030EDBCF14F085
:10056000040EDBCF15F00001800E151415E00868AD
:100570000968030EDBCF0DF0040EDBCF0EF05CEC50
:1005800006F0030E06C0DBFF040E07C0DBFF010E02
:10059000E66E32DFE55203D0E66A2EDFE552030E47
:1005A000DBCF14F0040EDBCF15F0640E0D6E0E6A77
:1005B00014C008F015C009F036EC06F008C014F0BD
:1005C00009C015F00A0E0D6E0E6A14C008F015C0B1
:1005D00009F036EC06F004C014F005C015F0145014
:1005E000DF6E030EDBCF14F0040EDBCF15F00A0E26
:1005F0000D6E0E6A14C008F015C009F036EC06F056
:1006000008C014F009C015F00A0E0D6E0E6A14C071
:1006100008F015C009F036EC06F004C014F005C06F
:1006200015F0010E14C0DBFF030EDBCF14F0040E37
:10063000DBCF15F00A0E0D6E0E6A14C008F015C05F
:1006400009F036EC06F004C014F005C015F0020EF7
:1006500014C0DBFFD9CFE6FFDACFE6FF46DEE55276
:10066000E552050EE15C03E200D0E16AE552E16E7D
:08067000E552E7CFD9FF1200AB
:08067800800E6F6E6E50E00B66
:10068000E842E842E842E842E842040801E0F6D7DE
:10069000400E726E0E01830E436FB80E446F050E4E
:1006A000456FFE0E7D6F466B476B716972697369AA
:1006B00074697569766977697869E26BE36BE06BF9
:1006C000E16BE66BE76BE46BE56B6F6A6E50E00B1A
:1006D000E842E842E842E842E842000901E1F6D790
:1006E000600E606E0F01306F1200D9CFE6FFE1CFD0
:1006F000D9FF0B0EE126DF6A60AE1ED063CF00FE8D
:1007000064CF01FE61CF02FE62CF03FE65CF04FE1F
:1007100066CF05FE67CF06FE68CF07FE69CF08FEED
:100720006ACF09FE6BCF0AFE6CCF0BFE6DCF0CFEBD
:10073000609E010EDF6E41D00F0130AF1ED033CF6F
:1007400000FE34CF01FE31CF02FE32CF03FE35CFA3
:1007500004FE36CF05FE37CF06FE38CF07FE39CF71
:1007600008FE3ACF09FE3BCF0AFE3CCF0BFE3DCF41
:100770000CFE309F010EDF6E20D00E0180AF1DD029
:1007800083CE00FE84CE01FE81CE02FE82CE03FE29
:1007900085CE04FE86CE05FE87CE06FE88CE07FEF9
:1007A00089CE08FE8ACE09FE8BCE0AFE8CCE0BFEC9
:1007B0008DCE0CFE809F010EDF6EDF0405E1DF6A47
:1007C0007792010E03D002D0000E00D0146E0B0EF3
:1007D000E15C02E2E16AE552E16E1450E552E7CFD6
:1007E000D9FF12000F01236B246B6B0E216FC00E1B
:1007F000226F030E256FAA0E266FCC0E276F550EA3
:10080000286F296B2A6B2B6B2C6B2D6B20871200AA
:10081000D9CFE6FFE1CFD9FF020EE1260F01236B0E
:10082000246BFE0EDBCF21FFFD0EDBCF22FFFC0E83
:10083000DBCF25FFFA0EDBCFE9FFFB0EDBCFEAFFB4
:10084000EFCF26FF010EE76EFA0EDBCFE9FFFB0EBE
:10085000DBCFEAFFE750E926000EEA22EFCF27FFC1
:10086000020EE76EFA0EDBCFE9FFFB0EDBCFEAFFED
:10087000E750E926000EEA22EFCF28FF030EE76ECD
:10088000FA0EDBCFE9FFFB0EDBCFEAFFE750E926EC
:10089000000EEA22EFCF29FF040EE76EFA0EDBCF3F
:1008A000E9FFFB0EDBCFEAFFE750E926000EEA2264
:1008B000EFCF2AFF050EE76EFA0EDBCFE9FFFB0E46
:1008C000DBCFEAFFE750E926000EEA22EFCF2BFF4D
:1008D000060EE76EFA0EDBCFE9FFFB0EDBCFEAFF79
:1008E000E750E926000EEA22EFCF2CFF070EE76E55
:1008F000FA0EDBCFE9FFFB0EDBCFEAFFE750E9267C
:10090000000EEA22EFCF2DFF2087020EE15C02E20B
:0E091000E16AE552E16EE552E7CFD9FF120031
:02091E00D9CF2F
:10092000E6FFE1CFD9FF0E0EE126DF6A010EDB6A9A
:10093000120EF36E020EF3CFDBFF010EF36E030E09
:10094000F3CFDBFF020EF36E040EF3CFDBFFF36E8B
:10095000050EF3CFDBFF7B0EF36E060EF3CFDBFF4E
:10096000070EDB6A080EDB6A090EDB6AFDEC05F098
:10097000060EDBCFE6FF070EDBCFE6FF0EEC02F044
:10098000E552E552010EE76E080EDBCF14F0090EBA
:10099000DBCF15F0E7501426000E1522080E14C008
:1009A000DBFF090E15C0DBFF010EDB28E76E010E31
:1009B000E7CFDBFF71D870D86FD86ED86DD86CD800
:1009C0006BD86AD869D868D867D866D865D864D82B
:1009D000080EDBCFE6FF090EDBCFE6FF0EEC02F0E0
:1009E000E552E552D950030FE66E000EDA20E66EAE
:1009F000E66ADFCFE6FF010EDBCFE6FF08EC04F08E
:100A0000146E050EE15E145075EC03F0000939E038
:100A1000070E0E010215000EF3500E010311E66ED3
:100A2000D9500A0FE96EDACFEAFFE552E750EE6ED1
:100A3000ED6AD9500A0FE96EDACFEAFF240EEE18FC
:100A400002E1020EED181DE10E0105051AE1030E8B
:100A50000E01045D16E10E010651E66ED9500C0F31
:100A6000E96EDACFEAFFE552E750EE6EED6A0C0E62
:100A7000DBCFE6FF0D0EDBCFE6FF9BEC02F0E5528D
:100A8000E55280D70E0EE15C02E2E16AE552E16ECA
:100A9000E552E7CFD9FF1200D9CFE6FFE1CFD9FF6A
:100AA000020EE126DE68DD68D9CFE9FFDACFEAFF82
:100AB000EE50ED1005E0DF06010E01E2DB06F4D793
:100AC000020EE15C02E2E16AE552E16EE552E7CF37
:040AD000D9FF120038
:0C0AD400DACFE4FFE2CFDAFFE652E55291
:100AE000E5CFDAFF1100DACFE4FFE2CFDAFFE9CF9A
:100AF000E4FFEACFE4FFF6CFE4FFF7CFE4FFF5CF62
:100B0000E4FFF3CFE4FFF4CFE4FFFACFE4FF00EE1D
:100B100000F0140EE80403E3EECFE4FFFBD700EE91
:100B200014F0050EE80403E3EECFE4FFFBD7E65232
:100B300016EC00F09E90E55200EE18F0050EE80469
:100B400003E3E5CFEDFFFBD700EE13F0140EE8044E
:100B500003E3E5CFEDFFFBD7E5CFFAFFE5CFF4FFE9
:100B6000E5CFF3FFE5CFF5FFE5CFF7FFE5CFF6FFE4
:100B7000E5CFEAFFE5CFE9FFE5CFDAFF1100400E50
:100B8000F26E440EF16EF06A010E9D6EA06AA36AC9
:100B9000B66A030E766E9F6AA26AA56AB86A786E14
:100BA0000E017E699E90FC0E7616800ED06E0F01AF
:100BB00056915F6B5E6B00D012004D0ECD6EAA6A2F
:100BC0001200926A200E896E0F015D6B0C0E936EFF
:100BD0008A6E5D6B5C6B916A916A6F0EC614C66E0D
:100BE000800E946E8B6EFFD700D012008F0ED31440
:100BF0007009D36E9B8C00D01200D9CFE6FFE1CFF5
:100C0000D9FF060EE126010EDF6EDE52020EDD6E0A
:100C1000030EF36E020EF3CFDBFF040EF36E030E32
:100C2000F3CFDBFF050EF36E040EF3CFDBFF060EF2
:100C3000F36E050EF3CFDBFFA2DFD8DFBEDFC1DF2F
:100C40003CEC03F0D9CFE6FFDACFE6FF86EC00F00C
:100C5000E552E552F28E060EE15C03E200D0E16A55
:0C0C6000E552E16EE552E7CFD9FF12002B
:040C6C00006A0EAE5E
:100C70003FEF06F00D6C0E1EE86A0E22001E09AE54
:100C800047EF06F0086C091EE86A0922001ED8EC3E
:100C900006F009BE57EF06F000AE000C086C091E06
:100CA000E86A0922046C051EE86A0522000C00BEF1
:100CB0004EEF06F00188FF0C09C013F008C012F0D7
:100CC00008500D02F4CF07F0F3CF06F009500E02E2
:100CD000F4CF09F0F3CF08F00D02F3500726F450DB
:100CE0000822E86A092212500E02F3500726F45037
:100CF0000822E86A09220EAE82EF06F01250085E62
:100D00001350095A13AE000C0D50085E0E50095ACC
:020D1000000CD5
:0E0D12001E0EF66E000EF76E000EF86E0E014D
:100D20000900F550126F0900F550136F03E11267C7
:100D300001D03DD00900F5500D6F0900F5500E6F40
:100D40000900F5500F6F09000900F550E96E090020
:100D5000F550EA6E090009000900F550106F09000E
:100D6000F550116F09000900F6CF14FEF7CF15FEFC
:100D7000F8CF16FE0DCEF6FF0ECEF7FF0FCEF8FF22
:100D80000E01105302E1115307E00900F550EE6E19
:100D90001007F8E21107F9D714CEF6FF15CEF7FFCA
:100DA00016CEF8FF0E011207000E135BBFD712001C
:100DB000056A046A100EE76ED890083609360436C4
:100DC00005360D50045C0E50055805E30D50045EC9
:0C0DD0000E50055A082AE72EF0D712003A
:040DDC00410EF36E63
:100DE00000EE00F00E0E01D81200EA6002D0EE6AAA
:0C0DF000FCD7F350E9601200EE6AFCD75B
:040DFC001DEE00F0F8
:100E00002DEE00F0F86A019C89EC06F003EC00F08E
:080E10008FEC04F0FBD7120087
:020000040030CA
:010000001DE2
:00000001FF
