:020000040000FA
:060000001FEF05F01200E5
:020006001200E6
:0600080069EF04F0120094
:02000E0031328D
:080010003334350000FF01014B
:0600180074EF04F0120079
:02001E000100DF
:0C0020000E000000170E00000A00000097
:04002C000E011D2B79
:100030001D51060801E21D6B1D51EA6A170FE96E9A
:100040000E0EEA22EF50E66E2CD8E5520E011D513D
:10005000050A1AE0010A15E0070A10E0010A0BE0A0
:10006000030A06E0010A01E011D08A8A899A0ED0BB
:10007000898A8A900BD08A808A9208D08A828A984C
:1000800005D08A888A9A02D08A8A8A9A1F511D5D71
:1000900004E0030E1D25205D02E18B9001D08B90C2
:1000A0001200D9CFE6FFE1CFD9FFFE0EDB500908E1
:1000B00008E3000EF36EFE0EDBCFF4FFF350F45CAA
:1000C00005E20A0EF36EFE0EF3CFDBFFFE0EDB50F1
:1000D0000F0B896EE552E7CFD9FF1200D9CFE6FFAB
:1000E000E1CFD9FF030EE126DF6A010EDB6A020EC3
:1000F000DB6A010EDBCF14F0020EDBCF15F0D890D7
:10010000155004E6060E145C000E155849E2010E67
:10011000DBCF14F0020EDBCF15F0FD0EDB50142404
:10012000E96EFE0EDB501520EA6EEF50090813E36E
:10013000010EDBCF17F0020EDBCF18F0FD0EDB5007
:100140001724E96EFE0EDB501820EA6EEFCF16F092
:10015000000E165C02E2010EDF6E010EDBCF14F022
:10016000020EDBCF15F0FD0EDB501424E96EFE0EFF
:10017000DB501520EA6EEF50E66E010EDBCFE9FF93
:10018000020EDBCFEAFF170EE9260E0EEA22E55239
:10019000E750EF6E010EDB2A020E01E3DB2AA9D73E
:1001A000DF50146E030EE15C03E200D0E16AE55219
:1001B000E16E1450E552E7CFD9FF1200D9CFE6FF28
:1001C000E1CFD9FF030EE126DF6A010EDB6A020EE2
:1001D000DB6A010EDBCF14F0020EDBCF15F0D890F6
:1001E000155004E6030E145C000E155849E2010E8A
:1001F000DBCF14F0020EDBCF15F0FD0EDB50142424
:10020000E96EFE0EDB501520EA6EEF50090813E38D
:10021000010EDBCF17F0020EDBCF18F0FD0EDB5026
:100220001724E96EFE0EDB501820EA6EEFCF16F0B1
:10023000000E165C02E2010EDF6E010EDBCF14F041
:10024000020EDBCF15F0FD0EDB501424E96EFE0E1E
:10025000DB501520EA6EEF50E66E010EDBCFE9FFB2
:10026000020EDBCFEAFF170EE9260E0EEA22E55258
:10027000E750EF6E010EDB2A020E01E3DB2AA9D75D
:10028000DF50146E030EE15C03E200D0E16AE55238
:10029000E16E1450E552E7CFD9FF1200D9CFE6FF47
:1002A000E1CFD9FF030EE126DF6AF36E010EF3CF33
:1002B000DBFF020EDB6A010EDBCF14F0020EDBCF98
:1002C00015F0D890155004E6060E145C000E155873
:1002D00049E2010EDBCF14F0020EDBCF15F0FD0E6C
:1002E000DB501424E96EFE0EDB501520EA6EEF5051
:1002F000090813E3010EDBCF17F0020EDBCF18F075
:10030000FD0EDB501724E96EFE0EDB501820EA6E5E
:10031000EFCF16F0000E165C02E2010EDF6E010E4A
:10032000DBCF14F0020EDBCF15F0FD0EDB501424F2
:10033000E96EFE0EDB501520EA6EEF50E66E010E00
:10034000DBCFE9FF020EDBCFEAFF170EE9260E0E28
:10035000EA22E552E750EF6E010EDB2A020E01E3BE
:10036000DB2AA9D7DF50146E030EE15C03E200D054
:10037000E16AE552E16E1450E552E7CFD9FF120071
:10038000D9CFE6FFE1CFD9FF0A0EE1262AEC03F030
:10039000E00E0E010215000EF3500E010315DE6E85
:1003A000DD6AD9CFE9FFDACFEAFF030EEE1802E1EA
:1003B000040EED1870E1D950060FE96EDACFEAFFAE
:1003C000110EEE6E0E0EED6E060EDBCFE9FF070E80
:1003D000DBCFEAFFEECF14F0EECF15F0EECF16F044
:1003E000EFCF17F014C005F015C006F016C007F0E7
:1003F00017C008F0BDEC03F0040E06C0DBFF050ECD
:1004000007C0DBFF640E146E156A040EDBCF06F026
:10041000050EDBCF07F014C00BF015C00CF0F9ECA3
:1004200004F006C017FE040EDBCF14F0050EDBCF80
:1004300015F0640E0B6E0C6A14C006F015C007F0C0
:10044000F9EC04F002C014F003C015F00A0E0B6EB4
:100450000C6A14C006F015C007F0F9EC04F006C0F1
:1004600014F007C015F014C018FE040EDBCF14F012
:10047000050EDBCF15F00A0E0B6E0C6A14C006F0E9
:1004800015C007F0F9EC04F002C014F003C015F039
:1004900014C019FE88D0D9CFE9FFDACFEAFF020EE7
:1004A000EE1802E1040EED1801E07DD0D950080FDE
:1004B000E96EDACFEAFF110EEE6E0E0EED6E080E4B
:1004C000DBCFE9FF090EDBCFEAFFEECF14F0EECF72
:1004D00015F0EECF16F0EFCF17F014C005F015C0F1
:1004E00006F016C007F017C008F0BDEC03F0040ECC
:1004F00006C0DBFF050E07C0DBFF040EDBCF14F0E8
:10050000050EDBCF15F0000E145C000E155802E24C
:100510008B9201D08B82640E146E156A040EDBCFB1
:1005200006F0050EDBCF07F014C00BF015C00CF081
:10053000F9EC04F006C01AFE040EDBCF14F0050E31
:10054000DBCF15F0640E0B6E0C6A14C006F015C0FC
:1005500007F0F9EC04F002C014F003C015F00A0E25
:100560000B6E0C6A14C006F015C007F0F9EC04F02D
:1005700006C014F007C015F014C01BFE040EDBCF3C
:1005800014F0050EDBCF15F00A0E0B6E0C6A14C0CA
:1005900006F015C007F0F9EC04F002C014F003C037
:1005A00015F014C01CFE0A0EE15C03E200D0E16A03
:0C05B000E552E16EE552E7CFD9FF1200E2
:0405BC00800E6F6ED0
:1005C0006E50E00BE842E842E842E842E8420408A4
:1005D00001E0F6D7400E726E0E01830E436FB80E27
:1005E000446F050E456FFC0E7D6FFA6BFB6BF8696F
:1005F000E00EF96FFE6BFF6BFC69FD6F030E466F3B
:10060000476BF40E796F7A697B697C69100E716FA4
:100610007269736974697569766977697869E26B7B
:10062000E36B320EE06FC00EE16FE66BE76B330EEB
:10063000E46FC00EE56F6F6A6E50E00BE842E8426F
:10064000E842E842E842000901E1F6D7606A0F019A
:10065000306B1200D9CFE6FFE1CFD9FF0B0EE126B8
:10066000DF6A60AE1ED063CF00FE64CF01FE61CFB3
:1006700002FE62CF03FE65CF04FE66CF05FE67CFA4
:1006800006FE68CF07FE69CF08FE6ACF09FE6BCF72
:100690000AFE6CCF0BFE6DCF0CFE609E010EDF6E6E
:1006A00041D00F0130AF1ED033CF00FE34CF01FE5A
:1006B00031CF02FE32CF03FE35CF04FE36CF05FE2A
:1006C00037CF06FE38CF07FE39CF08FE3ACF09FEF6
:1006D0003BCF0AFE3CCF0BFE3DCF0CFE309F010E00
:1006E000DF6E20D00E0180AF1DD083CE00FE84CE01
:1006F00001FE81CE02FE82CE03FE85CE04FE86CEB2
:1007000005FE87CE06FE88CE07FE89CE08FE8ACE7D
:1007100009FE8BCE0AFE8CCE0BFE8DCE0CFE809F8A
:10072000010EDF6EDF0405E1DF6A7792010E03D070
:1007300002D0000E00D0146E0B0EE15C02E2E16A02
:10074000E552E16E1450E552E7CFD9FF12000F01D8
:10075000236B246B6B0E216FC00E226F030E256F6F
:10076000AA0E266FCC0E276F550E286F296B2A6BA9
:0A0770002B6B2C6B2D6B2087120001
:06077A000F6AECEC03F035
:100780000FB6C7EF03F00FA20ED00FB405D07F0E47
:10079000076EFF0E066E1FD0800E076E066A1BD016
:1007A000076A066A18D00FB0FBD78F0E0860EDD726
:1007B0007E0E0864F5D78E0E085C05E0D8900732EF
:1007C0000632082AF8D70FA406D0066C071EE86A7E
:1007D000072207AEE5D712000736083602E30F847A
:1007E0000F7E06E10F80086A076A066A056A120032
:1007F000082803E0D88007321200D890073202E1BF
:100800000F8212000F8612000C360D3602E30F8C99
:100810000F7E06E10F880D6A0C6A0B6A0A6A1200E5
:100820000D2803E0D8800C321200D8900C32EAE197
:040830000F8A120019
:0C0834001E0EF66E000EF76E000EF86E41
:100840000E010900F550126F0900F550136F03E116
:10085000126701D03DD00900F5500D6F0900F55029
:100860000E6F0900F5500F6F09000900F550E96E91
:100870000900F550EA6E090009000900F550106FF3
:100880000900F550116F09000900F6CF14FEF7CFEB
:1008900015FEF8CF16FE0DCEF6FF0ECEF7FF0FCEEB
:1008A000F8FF0E01105302E1115307E00900F55063
:1008B000EE6E1007F8E21107F9D714CEF6FF15CE49
:1008C000F7FF16CEF8FF0E011207000E135BBFD71D
:0208D000120014
:0E08D200DACFE4FFE2CFDAFFE652FC0E771633
:1008E000E552E5CFDAFF1100DACFE4FFE2CFDAFF1D
:1008F000E6527B0E9E16E552E5CFDAFF1100640E3C
:10090000F26E440EF16EF06A010E9D6EA06AA36A4B
:10091000B66A030E766E9F6AA26AA56AB86A786E96
:10092000D08E00D012005F0ECD6EAA6A1200926ABD
:10093000896A0F015D6B936A8A6A5D6B5C6B916A71
:10094000946A8B6A00D01200FE0ED36E200E9B6E4E
:1009500000D01200D4DFF8DFE6DFE9DFDEEC02F0E2
:06096000F28000D012003D
:0A096600AAEC04F0E66A050EE66E46
:100970001DD8E552E552F9D71200D9CFE6FFE1CFF5
:10098000D9FFE652DF6A81B008D00E01235102E19F
:10099000010EDF6E010E236F02D00E01236BDF50BC
:1009A00000D0E552E552E7CFD9FF1200D9CFE6FFDC
:1009B000E1CFD9FFFD0EDBCF14F0DB06FE0EDBCF5F
:1009C00015F001E2DB061450151001E0F3D7E552F3
:1009D000E7CFD9FF12000E01FF0E215D000E225954
:1009E00004E2212B000E222303D0216B226B8B7497
:0209F0001200F3
:0E09F200036A026A100EE76ED89006360736CA
:100A0000023603360B50025C0C50035805E30B50C2
:0E0A1000025E0C50035A062AE72EF0D71200A1
:020A1E00410E87
:100A2000F36E00EE00F00E0E01D81200EA6002D064
:0E0A3000EE6AFCD7F350E9601200EE6AFCD7C4
:020A3E001DEEAB
:100A400000F02DEE00F0F86A0F9C1AEC04F003ECB5
:0A0A500000F0B3EC04F0FBD7120035
:020000040030CA
:010000001DE2
:00000001FF
