:020000040000FA
:0600000036EF02F01200D1
:020006001200E6
:06000800E3EF01F012001D
:02000E0031328D
:0500100033343500004F
:06001800EEEF01F0120002
:02001E000100DF
:0C0020000E000000170E0000070000009A
:04002C00800E6F6E65
:100030006E50E00BE842E842E842E842E842040839
:1000400001E0F6D7400E726E0E01810E436FB80EBE
:10005000446F050E456FFC0E7D6FFA6BFB6BF86904
:10006000E00EF96FFE6BFF6BFC69FD6F030E466FD0
:10007000476BF40E796F7A697B697C69100E716F3A
:100080007269736974697569766977697869E26B11
:10009000E36B320EE06FC00EE16FE66BE76B330E81
:1000A000E46FC00EE56F6F6A6E50E00BE842E84205
:1000B000E842E842E842000901E1F6D7606A0F0130
:1000C000306B1200D9CFE6FFE1CFD9FF090EE12650
:1000D000DF6A60AE1ED063CF00FE64CF01FE61CF49
:1000E00002FE62CF03FE65CF04FE66CF05FE67CF3A
:1000F00006FE68CF07FE69CF08FE6ACF09FE6BCF08
:100100000AFE6CCF0BFE6DCF0CFE609E010EDF6E03
:1001100041D00F0130AF1ED033CF00FE34CF01FEEF
:1001200031CF02FE32CF03FE35CF04FE36CF05FEBF
:1001300037CF06FE38CF07FE39CF08FE3ACF09FE8B
:100140003BCF0AFE3CCF0BFE3DCF0CFE309F010E95
:10015000DF6E20D00E0180AF1DD083CE00FE84CE96
:1001600001FE81CE02FE82CE03FE85CE04FE86CE47
:1001700005FE87CE06FE88CE07FE89CE08FE8ACE13
:1001800009FE8BCE0AFE8CCE0BFE8DCE0CFE809F20
:10019000010EDF6EDF0405E1DF6A7792010E03D006
:1001A00002D0000E00D0026E090EE15C02E2E16AAC
:1001B000E552E16E0250E552E7CFD9FF12000F0180
:1001C000236B246B6B0E216FC00E226F030E256F05
:1001D000AA0E266FCC0E276F550E286F296B2A6B3F
:0A01E0002B6B2C6B2D6B2087120097
:0601EA001FEC02F012D828
:1001F000000902E0DFEC00F062EC00F0000901E031
:100200008B8436D8E66A050EE66E1DD8E552E552B7
:10021000EED71200D9CFE6FFE1CFD9FFE652DF6A71
:1002200081B008D00E01205102E1010EDF6E010EF7
:10023000206F02D00E01206BDF5000D0E552E55256
:10024000E7CFD9FF1200D9CFE6FFE1CFD9FFFD0EEE
:10025000DBCF02F0DB06FE0EDBCF03F001E2DB06B4
:100260000250031001E0F3D7E552E7CFD9FF1200A7
:100270000E01FF0E1E5D000E1F5904E21E2B000E24
:0C0280001F2303D01E6B1F6B8B74120039
:04028C001E0EF66EDE
:10029000000EF76E000EF86E0E010900F550126F99
:1002A0000900F550136F03E1126701D03DD009003A
:1002B000F5500D6F0900F5500E6F0900F5500F6FE6
:1002C00009000900F550E96E0900F550EA6E0900D1
:1002D00009000900F550106F0900F550116F090071
:1002E0000900F6CF14FEF7CF15FEF8CF16FE0DCE9F
:1002F000F6FF0ECEF7FF0FCEF8FF0E01105302E10E
:10030000115307E00900F550EE6E1007F8E21107EF
:10031000F9D714CEF6FF15CEF7FF16CEF8FF0E0173
:0A0320001207000E135BBFD7120096
:06032A000E011D2B1D5108
:10033000060801E21D6B1D51EA6A170FE96E0E0EE9
:10034000EA22EF50E66E22D8E5520E011D51050A51
:100350001AE0010A15E0070A10E0010A0BE0030A9F
:1003600006E0010A01E011D08A8A899A0ED0898AB2
:100370008A900BD08A808A9208D08A828A9805D087
:100380008A888A9A02D08A8A8A9A1200D9CFE6FF8E
:10039000E1CFD9FFFE0EDB50090808E3000EF36E33
:1003A000FE0EDBCFF4FFF350F45C05E20A0EF36EB1
:1003B000FE0EF3CFDBFFFE0EDB500F0B896EE55216
:0603C000E7CFD9FF120097
:0A03C600DACFE4FFE2CFDAFFE652DF
:1003D000FC0E7716E552E5CFDAFF1100DACFE4FF25
:1003E000E2CFDAFFE6527B0E9E16E552E5CFDAFF4A
:1003F0001100E40EF26E440EF16EF06A040E9D6E72
:10040000A06AA36AB66A030E766E9F6AA26AA56A9C
:10041000B86A786E00D01200926A896A0F015D6B2B
:10042000936A8A6A5D6B5C6B916A946A8B6A00D08E
:100430001200F80ED36E600E9B6E00D01200D9DF52
:0C044000F8DFEADF16EC00F000D012003C
:04044C00410EF36EFC
:1004500000EE00F00E0E01D81200EA6002D0EE6A43
:0C046000FCD7F350E9601200EE6AFCD7F4
:04046C001DEE00F091
:100470002DEE00F0F86A019C46EC01F003EC00F070
:08048000F5EC00F0FBD71200BF
:020000040030CA
:010000001DE2
:00000001FF
