:020000040000FA
:0600000068EF06F012009B
:020006001200E6
:0600080019EF04F01200E4
:02000E0000FFF1
:020010000000EE
:0600180022EF04F01200CB
:02001E000100DF
:0C0020000E0000001D0E00000400000097
:04002C000E011F2B77
:100030001F6B1D2B1D51050801E21D6B1D51EA6A46
:10004000170FE96E0E0EEA22EF50E66E42D8E55227
:10005000898E8A808A828A888A8A898C0E011D51BB
:10006000050A2EE0010A25E0070A1CE0010A13E058
:10007000030A0AE0010A01E029D0899E8A808A8267
:100080008A888A8A898C22D0898E8A908A828A88F4
:100090008A8A898C1BD0898E8A808A928A888A8AE9
:1000A000898C14D0898E8A808A828A988A8A898CDF
:1000B0000DD0898E8A808A828A888A9A898C06D015
:1000C000898E8A808A828A888A8A899C800ECF6EED
:1000D0001200D9CFE6FFE1CFD9FFFE0EDB500908B1
:1000E00008E3000EF36EFE0EDBCFF4FFF350F45C7A
:1000F00005E20A0EF36EFE0EF3CFDBFFFE0EDB50C1
:100100000F0B896EE552E7CFD9FF1200D9CFE6FF7A
:10011000E1CFD9FF030EE126DF6A010EDB6A020E92
:10012000DB6A010EDBCF14F0020EDBCF15F0D890A6
:10013000155004E6060E145C000E155849E2010E37
:10014000DBCF14F0020EDBCF15F0FD0EDB501424D4
:10015000E96EFE0EDB501520EA6EEF50090813E33E
:10016000010EDBCF17F0020EDBCF18F0FD0EDB50D7
:100170001724E96EFE0EDB501820EA6EEFCF16F062
:10018000000E165C02E2010EDF6E010EDBCF14F0F2
:10019000020EDBCF15F0FD0EDB501424E96EFE0ECF
:1001A000DB501520EA6EEF50E66E010EDBCFE9FF63
:1001B000020EDBCFEAFF170EE9260E0EEA22E55209
:1001C000E750EF6E010EDB2A020E01E3DB2AA9D70E
:1001D000DF50146E030EE15C03E200D0E16AE552E9
:1001E000E16E1450E552E7CFD9FF1200D9CFE6FFF8
:1001F000E1CFD9FF030EE126DF6A010EDB6A020EB2
:10020000DB6A010EDBCF14F0020EDBCF15F0D890C5
:10021000155004E6030E145C000E155858E2010E4A
:10022000DBCF14F0020EDBCF15F0FD0EDB501424F3
:10023000E96EFE0EDB501520EA6EEF50090813E35D
:10024000010EDBCF17F0020EDBCF18F0FD0EDB50F6
:100250001724E96EFE0EDB501820EA6EEFCF16F081
:10026000000E165C11E2010EDBCF14F0020EDBCFA4
:1002700015F0FD0EDB501424E96EFE0EDB50152048
:10028000EA6EEF6A010EDF6E010EDBCF14F0020E94
:10029000DBCF15F0FD0EDB501424E96EFE0EDB50B3
:1002A0001520EA6EEF50E66E010EDBCFE9FF020E7D
:1002B000DBCFEAFF170EE9260E0EEA22E552E750E1
:1002C000EF6E010EDB2A020E01E3DB2A9AD7DF5024
:1002D000146E030EE15C03E200D0E16AE552E16EC8
:1002E0001450E552E7CFD9FF1200D9CFE6FFE1CF96
:1002F000D9FF030EE126DF6A010EDB6A020EDB6A1C
:10030000010EDBCF14F0020EDBCF15F0D8901550A4
:1003100004E6030E145C000E155860E2010EDBCFFC
:1003200014F0020EDBCF15F0FD0EDB501424E96E45
:10033000FE0EDB501520EA6EEF50090813E3010EA4
:10034000DBCF17F0020EDBCF18F0FD0EDB501724C9
:10035000E96EFE0EDB501820EA6EEFCF16F0000EAD
:10036000165C13E2030EE76E010EDBCFE9FF020E0F
:10037000DBCFEAFFE750E926000EEA22170EE92656
:100380000E0EEA22EF6A010EDF6E010EDBCF14F0D3
:10039000020EDBCF15F0FD0EDB501424E96EFE0ECD
:1003A000DB501520EA6EEF50E66E030EE76E010E8D
:1003B000DBCFE9FF020EDBCFEAFFE750E926000EB4
:1003C000EA22170EE9260E0EEA22E552E750EF6EFA
:1003D000010EDB2A020E01E3DB2A92D7DF50146EF6
:1003E000030EE15C03E200D0E16AE552E16E1450D5
:1003F000E552E7CFD9FF1200D9CFE6FFE1CFD9FF11
:10040000FE0EDB0404E1080E8B108B6E03D0F70E9A
:100410008B148B6EE552E7CFD9FF1200D9CFE6FFE0
:10042000E1CFD9FF030EE126FD0EDBCF14F0FE0E67
:10043000DBCF15F00001800E151410E00868096884
:10044000FD0EDBCF0DF0FE0EDBCF0EF0C6EC05F09F
:10045000FD0E06C0DBFFFE0E07C0DBFFFD0EDBCF8F
:1004600014F0FE0EDBCF15F0640E0D6E0E6A14C094
:1004700008F015C009F0A0EC05F008C014F009C0A0
:1004800015F00A0E0D6E0E6A14C008F015C009F0C2
:10049000A0EC05F004C014F005C015F01450DF6E98
:1004A000FD0EDBCF14F0FE0EDBCF15F00A0E0D6E45
:1004B0000E6A14C008F015C009F0A0EC05F008C0E1
:1004C00014F009C015F00A0E0D6E0E6A14C008F083
:1004D00015C009F0A0EC05F004C014F005C015F03B
:1004E000010E14C0DBFFFD0EDBCF14F0FE0EDBCFE0
:1004F00015F00A0E0D6E0E6A14C008F015C009F052
:10050000A0EC05F004C014F005C015F0020E14C0F4
:10051000DBFFD9CFE6FFDACFE6FF68DEE552E55232
:10052000030EE15C03E200D0E16AE552E16EE552C0
:10053000E7CFD9FF1200D9CFE6FFE1CFD9FF050EF3
:10054000E126FD0EDBCF08F0FE0EDBCF09F0030E37
:1005500008C0DBFF040E09C0DBFF030EDBCF14F085
:10056000040EDBCF15F00001800E151415E00868AD
:100570000968030EDBCF0DF0040EDBCF0EF0C6ECE6
:1005800005F0030E06C0DBFF040E07C0DBFF010E03
:10059000E66E32DFE55203D0E66A2EDFE552030E47
:1005A000DBCF14F0040EDBCF15F0640E0D6E0E6A77
:1005B00014C008F015C009F0A0EC05F008C014F054
:1005C00009C015F00A0E0D6E0E6A14C008F015C0B1
:1005D00009F0A0EC05F004C014F005C015F01450AB
:1005E000DF6E030EDBCF14F0040EDBCF15F00A0E26
:1005F0000D6E0E6A14C008F015C009F0A0EC05F0ED
:1006000008C014F009C015F00A0E0D6E0E6A14C071
:1006100008F015C009F0A0EC05F004C014F005C006
:1006200015F0010E14C0DBFF030EDBCF14F0040E37
:10063000DBCF15F00A0E0D6E0E6A14C008F015C05F
:1006400009F0A0EC05F004C014F005C015F0020E8E
:1006500014C0DBFFD9CFE6FFDACFE6FF46DEE55276
:10066000E552050EE15C03E200D0E16AE552E16E7D
:08067000E552E7CFD9FF1200AB
:08067800800E6F6E6E50E00B66
:10068000E842E842E842E842E842040801E0F6D7DE
:10069000400E726E0E01830E436FB80E446F050E4E
:1006A000456FFC0E7D6FFA6BFB6BF869E00EF96F1E
:1006B000FE6BFF6BFC69FD6F466B476BF40E796F49
:1006C0007A697B697C69100E716F726973697469EC
:1006D0007569766977697869E26BE36B320EE06F72
:1006E000C00EE16FE66BE76B330EE46FC00EE56F93
:1006F0006F6A6E50E00BE842E842E842E842E842A6
:10070000000901E1F6D7606A0F01306B1200D9CF02
:10071000E6FFE1CFD9FF0B0EE126DF6A60AE1ED007
:1007200063CF00FE64CF01FE61CF02FE62CF03FE05
:1007300065CF04FE66CF05FE67CF06FE68CF07FED5
:1007400069CF08FE6ACF09FE6BCF0AFE6CCF0BFEA5
:100750006DCF0CFE609E010EDF6E41D00F0130AFF9
:100760001ED033CF00FE34CF01FE31CF02FE32CF98
:1007700003FE35CF04FE36CF05FE37CF06FE38CF59
:1007800007FE39CF08FE3ACF09FE3BCF0AFE3CCF29
:100790000BFE3DCF0CFE309F010EDF6E20D00E0110
:1007A00080AF1DD083CE00FE84CE01FE81CE02FE3E
:1007B00082CE03FE85CE04FE86CE05FE87CE06FEE3
:1007C00088CE07FE89CE08FE8ACE09FE8BCE0AFEB1
:1007D0008CCE0BFE8DCE0CFE809F010EDF6EDF04F3
:1007E00005E1DF6A7792010E03D002D0000E00D03F
:1007F000146E0B0EE15C02E2E16AE552E16E145008
:10080000E552E7CFD9FF12000F01236B246B6B0E6B
:10081000216FC00E226F256BAA0E266FCC0E276F9C
:10082000550E286F296B2A6B2B6B2C6B2D6B208739
:020830001200B4
:0E083200DACFE4FFE2CFDAFFE652E552E5CF7F
:10084000DAFF1100DACFE4FFE2CFDAFFE9CFE4FF0D
:10085000EACFE4FFF6CFE4FFF7CFE4FFF5CFE4FF04
:10086000F3CFE4FFF4CFE4FFFACFE4FF00EE00F0B3
:10087000140EE80403E3EECFE4FFFBD700EE14F020
:10088000050EE80403E3EECFE4FFFBD7E65216ECD7
:1008900000F09E90E55200EE18F0050EE80403E328
:1008A000E5CFEDFFFBD700EE13F0140EE80403E3F1
:1008B000E5CFEDFFFBD7E5CFFAFFE5CFF4FFE5CFBE
:1008C000F3FFE5CFF5FFE5CFF7FFE5CFF6FFE5CF87
:1008D000EAFFE5CFE9FFE5CFDAFF1100400EF26E47
:1008E000440EF16EF06A010E9D6EA06AA36AB66AAC
:1008F000030E766E9F6AA26AA56AB86A786E0E01C8
:100900007E699E90FC0E7616800ED06E0F01569179
:100910005F6B5E6B00D012004D0ECD6EAA6A1200A6
:10092000926A896A0F015D6B080E936E8A6A5D6B2D
:100930005C6B916A916A800E946E080E8B6E00D08B
:1009400012008F0ED3147009D36E9B8C00D012004E
:10095000D9CFE6FFE1CFD9FF060EE126010EDF6E0B
:10096000DE52020EDD6E030EF36E020EF3CFDBFFDE
:10097000040EF36E030EF3CFDBFF050EF36E040ED1
:10098000F3CFDBFF060EF36E050EF3CFDBFFA6DF22
:10099000D8DFC2DFC5DF3CEC03F0D9CFE6FFDACF0A
:1009A000E6FF86EC00F0E552E552F28E060EE15CC1
:1009B00003E200D0E16AE552E16EE552E7CFD9FFEC
:0209C000120023
:0E09C200D9CFE6FFE1CFD9FF090EE1267A0E6C
:1009D000F36E030EF3CFDBFF040EDB6A850EF36EBE
:1009E000050EF3CFDBFF060EDB6A87EC03F0E76E44
:1009F000020EE7CFDBFF070E0E010215000EF350CB
:100A00000E010311DE6EDD6AD9CFE9FFDACFEAFF0E
:100A1000240EEE1802E1020EED1830E1030EDBCFDA
:100A2000E6FF040EDBCFE6FF0EEC02F0E552E552E6
:100A3000D950070FE96EDACFEAFF050EEE6E0E0E03
:100A4000ED6E070EDBCFE9FF080EDBCFEAFFEECF3E
:100A5000E6FFEFCFE6FF9BEC02F0E552E552070E12
:100A6000DBCFE9FF080EDBCFEAFFEECF14F0EFCFCC
:100A700015F014C0F3FF15C0F4FF00D0090EE15CBF
:100A800002E2E16AE552E16EE552E7CFD9FF1200DA
:100A9000D9CFE6FFE1CFD9FF0C0EE126DF6A010EC8
:100AA000DB6A020EDB6A6F0EF36E060EF3CFDBFF1E
:100AB000070EDB6AA8EC04F0060EDBCFE6FF070E9C
:100AC000DBCFE6FF0EEC02F0E552E552080EDB6AE2
:100AD000090EDB6A17D816D815D804EC04F0E1EC3F
:100AE00004F00A0EF3CFDBFF0B0EF4CFDBFFEED7E3
:100AF0000C0EE15C02E2E16AE552E16EE552E7CFFD
:100B0000D9FF1200D9CFE6FFE1CFD9FF020EE126CF
:100B1000DE68DD68D9CFE9FFDACFEAFFEE50ED10ED
:100B200005E0DF06010E01E2DB06F4D7020EE15C10
:100B300002E2E16AE552E16EE552E7CFD9FF120029
:100B4000006A0EAEA9EF05F00D6C0E1EE86A0E22CB
:100B5000001E09AEB1EF05F0086C091EE86A092213
:100B6000001E42EC06F009BEC1EF05F000AE000C1D
:100B7000086C091EE86A0922046C051EE86A052251
:100B8000000C00BEB8EF05F00188FF0C09C013F09F
:100B900008C012F008500D02F4CF07F0F3CF06F0B2
:100BA00009500E02F4CF09F0F3CF08F00D02F35014
:100BB0000726F4500822E86A092212500E02F35068
:100BC0000726F4500822E86A09220EAEECEF05F081
:100BD0001250085E1350095A13AE000C0D50085EF7
:060BE0000E50095A000C42
:0A0BE6001E0EF66E000EF76E000EF4
:100BF000F86E0E010900F550126F0900F550136FE1
:100C000003E1126701D03DD00900F5500D6F0900D6
:100C1000F5500E6F0900F5500F6F09000900F550EF
:100C2000E96E0900F550EA6E090009000900F55067
:100C3000106F0900F550116F09000900F6CF14FE7E
:100C4000F7CF15FEF8CF16FE0DCEF6FF0ECEF7FF4E
:100C50000FCEF8FF0E01105302E1115307E0090017
:100C6000F550EE6E1007F8E21107F9D714CEF6FF33
:100C700015CEF7FF16CEF8FF0E011207000E135B1C
:040C8000BFD71200C8
:0C0C8400056A046A100EE76ED89008366E
:100C90000936043605360D50045C0E50055805E340
:100CA0000D50045E0E50055A082AE72EF0D71200A8
:100CB000410EF36E00EE00F00E0E01D81200EA6055
:100CC00002D0EE6AFCD7F350E9601200EE6AFCD75E
:100CD0001DEE00F02DEE00F0F86A019CF3EC05F03B
:0C0CE00003EC00F048EC05F0FBD712001C
:020000040030CA
:010000001DE2
:00000001FF
